:100000000C9462000C948A000C948A000C948A0070
:100010000C948A000C948A000C948A000C948A0038
:100020000C948A000C948A000C948A000C948A0028
:100030000C948A000C948A000C948A000C948A0018
:100040000C9481040C948A000C948A000C948A000D
:100050000C948A000C948A000C948A000C948A00F8
:100060000C948A000C948A00000000080002010031
:100070000003040700000000000000000102040863
:100080001020408001020408102001020408102002
:10009000040404040404040402020202020203032E
:1000A00003030303000000002300260029000000D2
:1000B0000000250028002B0000000000240027007D
:1000C0002A00BD0211241FBECFEFD8E0DEBFCDBF96
:1000D00011E0A0E0B1E0E2E5FCE002C005900D9285
:1000E000A23CB107D9F721E0A2ECB1E001C01D921A
:1000F000AA3EB207E1F710E0C4ECD0E004C02297BA
:10010000FE010E942306C23CD107C9F70E94D20516
:100110000C9427060C940000CF9320E042E060E1AD
:1001200082EC91E00E949A03C8E062E08C2F0E946A
:100130003905CF5FCD30C9F761E08EE00E94390507
:1001400061E08FE00E9439051092DE011092DD011E
:100150001092DC011092DB011092DA0160E08EE077
:100160000E94720560E08FE0CF910C9472058CE0E4
:100170000E94A805892B19F481E08093DE018BE0B1
:100180000E94A805892B19F481E08093DD018CE0A1
:100190000E94A805892BA1F08091DE01882381F0BF
:1001A0001092DE0182EC91E00E94790380910101BE
:1001B0008F5F8093010185301CF081E08093010105
:1001C0008BE00E94A805892BB1F08091DD0181119F
:1001D00001C008951092DD0182EC91E00E94790344
:1001E00080910101815080930101181624F084E070
:1001F000809301010895089540E060E082EC91E071
:100200000E94800362E071E082EC91E00E941F0690
:1002100041E060E082EC91E00E9480036EE071E0DA
:1002200082EC91E00C941F0640E060E082EC91E0EB
:100230000E9480036EE171E082EC91E00E941F0653
:1002400041E061E082EC91E00E9480036AE271E0AB
:1002500082EC91E00C941F0640E060E082EC91E0BB
:100260000E94800365E371E082EC91E00E941F062A
:100270008AE00E94A805892B19F481E08093DC01B3
:1002800089E00E94A805892B19F481E08093DB01A5
:100290008AE00E94A805892B11F18091DC01882356
:1002A000F1F01092DC018091E0018F5F83300CF05F
:1002B00081E08093E0018091E0018130D9F441E058
:1002C00060E082EC91E00E94800366E471E082ECE1
:1002D00091E00E941F0661E08EE00E94720589E0B5
:1002E0000E94A805892B09F444C08091DB0181118B
:1002F00011C00895823099F741E060E082EC91E00E
:100300000E9480036DE471E082EC91E00E941F0680
:1003100060E0E2CF1092DB018091DF018F5F8330DC
:100320000CF081E08093DF018091DF01813019F0D2
:10033000823079F0089541E068E082EC91E00E941B
:10034000800364E571E082EC91E00E941F0661E0A9
:100350000DC041E068E082EC91E00E9480036BE513
:1003600071E082EC91E00E941F0660E08FE00C9447
:100370007205089540E060E082EC91E00E94800305
:1003800062E671E082EC91E00E941F0641E060E0CD
:1003900082EC91E00E9480036BE671E082EC91E0D8
:1003A0000E941F06E7CF40E060E082EC91E00E94EF
:1003B00080036CE771E082EC91E00E941F0641E04F
:1003C00060E082EC91E00E9480036BE671E082ECD9
:1003D00091E00E941F06E7CF40E060E082EC91E0F0
:1003E0000E94800365E871E082EC91E00E941F06A4
:1003F00041E060E082EC91E00E9480036BE671E0F6
:1004000082EC91E00E941F06E7CFCF93C82F88E0CF
:100410000E94A805892B19F481E08093DA0188E015
:100420000E94A805892B91F08091DA01882371F050
:100430001092DA01C23011F40E94D301C33011F4DA
:100440000E94EC01C13011F40E94BA01CF910895CD
:100450008AE00E94A805892B19F481E08093DC01D1
:1004600089E00E94A805892B19F481E08093DB01C3
:100470008AE00E94A805892B81F08091DC01882305
:1004800061F01092DC01809100018F5F8093000188
:1004900084301CF081E08093000189E00E94A8056F
:1004A000892B81F08091DB01882361F01092DB01C0
:1004B0008091000181508093000118161CF083E0A8
:1004C0008093000180910001823091F08330F1F03F
:1004D000813059F541E061E082EC91E00E948003B7
:1004E0006EE871E082EC91E00E941F0681E01BC083
:1004F00041E061E082EC91E00E9480036AE971E0F2
:1005000082EC91E00E941F0682E00DC041E061E0B4
:1005100082EC91E00E94800366EA71E082EC91E057
:100520000E941F0683E00C940502089540E060E0FD
:1005300082EC91E00E94800362EB71E082EC91E03A
:100540000E941F060C94280280910101823059F00C
:100550001CF4813031F00895833039F0843039F063
:1005600008950C94FC000C9414010C942C010C9430
:1005700096020E94B7000C94A402CF92EF920F93C0
:1005800082E0C82E93E0E92E04E025E046E067E033
:1005900082EC91E00E9455040F91EF90CF90089566
:1005A000CF93DF93EC0160E08E810E94720581E0C1
:1005B00090E00E94CB0461E08E810E94720581E090
:1005C00090E00E94CB0460E08E810E94720584E678
:1005D00090E0DF91CF910C94CB04CF92DF92EF9219
:1005E000FF920F931F93CF93DF937C01C0E0D0E085
:1005F000C62ED12C87010C0F1D1F61E0F8018781E9
:100600000E943905B6010C2E02C0759567950A94B3
:10061000E2F76170F80187810E9472052196C4306B
:10062000D10541F7C701DF91CF911F910F91FF9045
:10063000EF90DF90CF900C94D002CF92DF92EF92A8
:10064000FF920F931F93CF93DF937C01C0E0D0E024
:10065000C62ED12C87010C0F1D1F61E0F801878188
:100660000E943905B6010C2E02C0759567950A9453
:10067000E2F76170F80187810E9472052196C83007
:10068000D10541F7C701DF91CF911F910F91FF90E5
:10069000EF90DF90CF900C94D0021F93CF93DF9315
:1006A000EC01162F642F8C810E9472058D818F3F83
:1006B00019F060E00E9472058F85612F84FF06C0EB
:1006C000CE01DF91CF911F910C941D0370E084E067
:1006D000759567958A95E1F7CE010E94ED02612F2D
:1006E000CE01DF91CF911F910C94ED0240E00C946C
:1006F0004D0361E00E94760380ED97E00C94CB04FB
:10070000443008F043E0FC012389421710F04FEF1A
:10071000420FFC01E40FF11D2489260F2068622F8F
:100720000C947603FC016089262F2460208B6C607A
:100730000C947603CF93DF93EC01423018F08F8551
:1007400088608F874B8B1C8A80E48D8B6E8B70E06A
:10075000605C7F4F6F8B222329F0413019F48F8525
:1007600084608F8780E593EC0E94CB0460E08C81ED
:100770000E94720560E08E810E9472058D818F3F1C
:1007800019F060E00E9472056F8564FD1DC063E092
:10079000CE010E94ED0284E991E10E94CB0463E066
:1007A000CE010E94ED0284E991E10E94CB0463E056
:1007B000CE010E94ED0286E990E00E94CB0462E047
:1007C000CE010E94ED0216C06062CE010E94760347
:1007D00084E991E10E94CB046F856062CE010E94A2
:1007E000760386E990E00E94CB046F856062CE01BB
:1007F0000E9476036F856062CE010E94760384E0DA
:10080000888BCE010E949203CE010E94790382E080
:10081000898B66E0CE01DF91CF910C9476036F92C5
:100820007F928F92AF92CF92EF920F931F93CF93BD
:10083000DF93CDB7DEB73C01162F842F5D854E8543
:100840003F859889F301848325830683E782C086E8
:10085000A1868286538744873587968761E00E9408
:100860003905F30185818F3F19F061E00E94390558
:1008700061E0F30186810E943905112319F0F3012B
:10088000178603C080E1F301878720E041E060E143
:10089000C301DF91CF911F910F91EF90CF90AF9057
:1008A0008F907F906F900C949A038F92AF92CF921B
:1008B000EF920F93DC0113961C921E921297EDEBB0
:1008C000F1E0ED93FC931F921F921F921F928C2CCC
:1008D000AE2CC02EE22E042F2FEF462F61E00E9497
:1008E0000F040F900F900F900F900F91EF90CF90FB
:1008F000AF908F90089541E00E944D0381E090E019
:1009000008951F920F920FB60F9211242F933F93C9
:100910008F939F93AF93BF938091E2019091E301F6
:10092000A091E401B091E5013091E10123E0230FB2
:100930002D3720F40196A11DB11D05C026E8230F17
:100940000296A11DB11D2093E1018093E2019093D5
:10095000E301A093E401B093E5018091E601909159
:10096000E701A091E801B091E9010196A11DB11D37
:100970008093E6019093E701A093E801B093E90129
:10098000BF91AF919F918F913F912F910F900FBE8B
:100990000F901F901895019739F0880F991F880FB5
:1009A000991F02970197F1F70895789484B58260B2
:1009B00084BD84B5816084BD85B5826085BD85B503
:1009C000816085BDEEE6F0E0808181608083E1E8B2
:1009D000F0E01082808182608083808181608083EA
:1009E000E0E8F0E0808181608083E1EBF0E08081ED
:1009F00084608083E0EBF0E0808181608083EAE7BF
:100A0000F0E0808184608083808182608083808147
:100A1000816080838081806880831092C100089506
:100A2000833081F028F4813099F08230A1F008956C
:100A30008730A9F08830B9F08430D1F480918000FB
:100A40008F7D03C0809180008F7780938000089510
:100A500084B58F7702C084B58F7D84BD0895809161
:100A6000B0008F7703C08091B0008F7D8093B0007D
:100A70000895CF93DF9390E0FC01E458FF4F249159
:100A8000FC01E057FF4F8491882349F190E0880FE3
:100A9000991FFC01E854FF4FA591B49182559F4FD7
:100AA000FC01C591D4919FB7611108C0F8948C9155
:100AB000209582238C93888182230AC0623051F46E
:100AC000F8948C91322F309583238C938881822BDC
:100AD000888304C0F8948C91822B8C939FBFDF9104
:100AE000CF9108950F931F93CF93DF931F92CDB7AC
:100AF000DEB7282F30E0F901E859FF4F8491F90162
:100B0000E458FF4F1491F901E057FF4F049100237F
:100B1000C9F0882321F069830E9410056981E02FC4
:100B2000F0E0EE0FFF1FE255FF4FA591B4919FB784
:100B3000F8948C91611103C01095812301C0812B21
:100B40008C939FBF0F90DF91CF911F910F910895CC
:100B5000CF93DF93282F30E0F901E859FF4F8491BC
:100B6000F901E458FF4FD491F901E057FF4FC491C8
:100B7000CC2391F081110E941005EC2FF0E0EE0FD4
:100B8000FF1FEC55FF4FA591B4912C912D2381E0CF
:100B900090E021F480E002C080E090E0DF91CF910E
:100BA000089508950E94D5040E94D1050E948C00EA
:100BB000C0E0D0E00E94B9022097E1F30E9400005B
:100BC000F9CFCF92DF92EF92FF920F931F93CF93C3
:100BD000DF936C017A01EB01E60EF71E00E010E0F6
:100BE000CE15DF0561F06991D601ED91FC91019080
:100BF000F081E02DC6010995080F191FF1CFC8013A
:100C0000DF91CF911F910F91FF90EF90DF90CF90E8
:100C100008956115710581F0DB010D900020E9F761
:100C2000AD0141505109461B570BDC01ED91FC9180
:100C30000280F381E02D099480E090E008950C9407
:100C40000906EE0FFF1F0590F491E02D0994F8942A
:020C5000FFCFD4
:100C5200010144617461206520486F72610032377E
:100C62002F30382F3135202031353A313400546558
:100C72006D70657261747572610032352043656C06
:100C820073697573004163696F6E6172204C616DA7
:100C92007061646173004C31206F6E20004C312012
:100CA2006F6666004C32206F6E20004C32206F66F9
:100CB2006600546172656661203100456D2066757B
:100CC2006E63696F6E616D656E746F0054617265FB
:100CD200666120320054617265666120330053758B
:100CE20062204D656E7520303100537562204D656E
:100CF2006E7520303200537562204D656E7520305E
:100D020033004D656E75203400000000007B04E165
:020D12000500DA
:00000001FF
