:100000000C9462000C948A000C948A000C948A0070
:100010000C948A000C948A000C948A000C948A0038
:100020000C948A000C948A000C948A000C948A0028
:100030000C948A000C948A000C948A000C948A0018
:100040000C94AD030C948A000C948A000C948A00E2
:100050000C948A000C948A000C948A000C948A00F8
:100060000C948A000C948A00000000080002010031
:100070000003040700000000000000000102040863
:100080001020408001020408102001020408102002
:10009000040404040404040402020202020203032E
:1000A00003030303000000002300260029000000D2
:1000B0000000250028002B0000000000240027007D
:1000C0002A00E90111241FBECFEFD8E0DEBFCDBF6B
:1000D00011E0A0E0B1E0EAEAFAE002C005900D927A
:1000E000A837B107D9F721E0A8E7B1E001C01D9218
:1000F000AF39B207E1F710E0C4ECD0E004C02297BA
:10010000FE010E944F05C23CD107C9F70E94FE04C0
:100110000C9453050C940000CF9320E042E060E182
:1001200088E791E00E94C602C9E062E08C2F0E943D
:100130006504CF5FCD30C9F761E08EE00E946504B1
:1001400061E08FE00E946504109293011092920189
:10015000109291011092900160E08EE00E949E0446
:1001600060E08FE0CF910C949E048CE00E94D40458
:10017000892B19F481E0809393018BE00E94D404D1
:10018000892B19F481E0809392018CE00E94D404C1
:10019000892BA1F080919301882381F01092930123
:1001A00088E791E00E94A502809100018F5F809313
:1001B000000185301CF081E0809300018BE00E94FB
:1001C000D404892BB1F080919201811101C008956E
:1001D0001092920188E791E00E94A50280910001AF
:1001E000815080930001181624F084E08093000170
:1001F0000895089540E060E088E791E00E94AC0235
:1002000061E071E088E791E00E944B0541E060E029
:1002100088E791E00E94AC026DE071E088E791E030
:100220000C944B0540E060E088E791E00E94AC024E
:100230006DE171E088E791E00E944B0541E061E0EB
:1002400088E791E00E94AC0269E271E088E791E002
:100250000C944B0540E060E088E791E00E94AC021E
:1002600064E371E088E791E00E944B058AE00E9418
:10027000D404892B19F481E08093910189E00E94D4
:10028000D404892B19F481E0809390018AE00E94C4
:10029000D404892B11F1809191018823F1F01092FF
:1002A0009101809195018F5F83300CF081E0809304
:1002B0009501809195018130D9F441E060E088E7B3
:1002C00091E00E94AC0265E471E088E791E00E9451
:1002D0004B0561E08EE00E949E0489E00E94D404F8
:1002E000892B09F444C080919001811111C00895B7
:1002F000823099F741E060E088E791E00E94AC022B
:100300006CE471E088E791E00E944B0560E0E2CF89
:1003100010929001809194018F5F83300CF081E006
:100320008093940180919401813019F0823079F0AA
:10033000089541E068E088E791E00E94AC0263E53F
:1003400071E088E791E00E944B0561E00DC041E05B
:1003500068E088E791E00E94AC026AE571E088E716
:1003600091E00E944B0560E08FE00C949E0408959C
:1003700040E060E088E791E00E94AC0261E671E055
:1003800088E791E00E944B0541E067E088E791E053
:100390000E94AC0268E671E088E791E00C944B059E
:1003A00080910001823059F01CF4813031F00895C1
:1003B000833039F0843039F008950C94FA000C94AD
:1003C00012010C942A010C94B8010E94B5000C94FF
:1003D000D001CF92EF920F9382E0C82E93E0E92EE6
:1003E00004E025E046E067E088E791E00E948103B1
:1003F0000F91EF90CF900895CF93DF93EC0160E0E1
:100400008E810E949E0481E090E00E94F70361E0EB
:100410008E810E949E0481E090E00E94F70360E0DC
:100420008E810E949E0484E690E0DF91CF910C942F
:10043000F703CF92DF92EF92FF920F931F93CF9328
:10044000DF937C01C0E0D0E0C62ED12C87010C0FD9
:100450001D1F61E0F80187810E946504B6010C2E22
:1004600002C0759567950A94E2F76170F80187817B
:100470000E949E042196C430D10541F7C701DF9147
:10048000CF911F910F91FF90EF90DF90CF900C9440
:10049000FC01CF92DF92EF92FF920F931F93CF93C5
:1004A000DF937C01C0E0D0E0C62ED12C87010C0F79
:1004B0001D1F61E0F80187810E946504B6010C2EC2
:1004C00002C0759567950A94E2F76170F80187811B
:1004D0000E949E042196C830D10541F7C701DF91E3
:1004E000CF911F910F91FF90EF90DF90CF900C94E0
:1004F000FC011F93CF93DF93EC01162F642F8C81A7
:100500000E949E048D818F3F19F060E00E949E043E
:100510008F85612F84FF06C0CE01DF91CF911F919F
:100520000C94490270E084E0759567958A95E1F72F
:10053000CE010E941902612FCE01DF91CF911F9150
:100540000C94190240E00C94790261E00E94A2022E
:1005500080ED97E00C94F703443008F043E0FC0191
:100560002389421710F04FEF420FFC01E40FF11DF9
:100570002489260F2068622F0C94A202FC01608956
:10058000262F2460208B6C600C94A202CF93DF9303
:10059000EC01423018F08F8588608F874B8B1C8A66
:1005A00080E48D8B6E8B70E0605C7F4F6F8B2223BD
:1005B00029F0413019F48F8584608F8780E593ECB2
:1005C0000E94F70360E08C810E949E0460E08E81AF
:1005D0000E949E048D818F3F19F060E00E949E046E
:1005E0006F8564FD1DC063E0CE010E94190284E99D
:1005F00091E10E94F70363E0CE010E94190284E9B1
:1006000091E10E94F70363E0CE010E94190286E99E
:1006100090E00E94F70362E0CE010E94190216C02A
:100620006062CE010E94A20284E991E10E94F70378
:100630006F856062CE010E94A20286E990E00E946E
:10064000F7036F856062CE010E94A2026F8560622F
:10065000CE010E94A20284E0888BCE010E94BE02DD
:10066000CE010E94A50282E0898B66E0CE01DF9177
:10067000CF910C94A2026F927F928F92AF92CF9201
:10068000EF920F931F93CF93DF93CDB7DEB73C016B
:10069000162F842F5D854E853F859889F3018483CD
:1006A00025830683E782C086A18682865387448796
:1006B0003587968761E00E946504F30185818F3F4D
:1006C00019F061E00E94650461E0F30186810E94F7
:1006D0006504112319F0F301178603C080E1F301CB
:1006E000878720E041E060E1C301DF91CF911F9156
:1006F0000F91EF90CF90AF908F907F906F900C9470
:10070000C6028F92AF92CF92EF920F93DC011396B5
:100710001C921E921297E4E7F1E0ED93FC931F9276
:100720001F921F921F928C2CAE2CC02EE22E042FF3
:100730002FEF462F61E00E943B030F900F900F9028
:100740000F900F91EF90CF90AF908F90089541E070
:100750000E94790281E090E008951F920F920FB6F7
:100760000F9211242F933F938F939F93AF93BF9337
:100770008091970190919801A0919901B0919A016F
:100780003091960123E0230F2D3720F40196A11D0F
:10079000B11D05C026E8230F0296A11DB11D2093AF
:1007A00096018093970190939801A0939901B0933B
:1007B0009A0180919B0190919C01A0919D01B09123
:1007C0009E010196A11DB11D80939B0190939C01F8
:1007D000A0939D01B0939E01BF91AF919F918F9186
:1007E0003F912F910F900FBE0F901F90189501977A
:1007F00039F0880F991F880F991F02970197F1F719
:100800000895789484B5826084BD84B5816084BD88
:1008100085B5826085BD85B5816085BDEEE6F0E079
:10082000808181608083E1E8F0E0108280818260D5
:100830008083808181608083E0E8F0E08081816056
:100840008083E1EBF0E0808184608083E0EBF0E086
:10085000808181608083EAE7F0E08081846080832A
:1008600080818260808380818160808380818068D4
:1008700080831092C1000895833081F028F4813084
:1008800099F08230A1F008958730A9F08830B9F04E
:100890008430D1F4809180008F7D03C080918000EE
:1008A0008F7780938000089584B58F7702C084B5D8
:1008B0008F7D84BD08958091B0008F7703C08091B3
:1008C000B0008F7D8093B0000895CF93DF9390E0C8
:1008D000FC01E458FF4F2491FC01E057FF4F849145
:1008E000882349F190E0880F991FFC01E854FF4FDD
:1008F000A591B49182559F4FFC01C591D4919FB7AA
:10090000611108C0F8948C91209582238C93888182
:1009100082230AC0623051F4F8948C91322F3095C2
:1009200083238C938881822B888304C0F8948C91D4
:10093000822B8C939FBFDF91CF9108950F931F93CC
:10094000CF93DF931F92CDB7DEB7282F30E0F901A8
:10095000E859FF4F8491F901E458FF4F1491F901D0
:10096000E057FF4F04910023C9F0882321F06983E9
:100970000E943C046981E02FF0E0EE0FFF1FE2557A
:10098000FF4FA591B4919FB7F8948C91611103C06A
:100990001095812301C0812B8C939FBF0F90DF9115
:1009A000CF911F910F910895CF93DF93282F30E0BF
:1009B000F901E859FF4F8491F901E458FF4FD491B0
:1009C000F901E057FF4FC491CC2391F081110E94AF
:1009D0003C04EC2FF0E0EE0FFF1FEC55FF4FA5910C
:1009E000B4912C912D2381E090E021F480E002C0AD
:1009F00080E090E0DF91CF91089508950E94010476
:100A00000E94FD040E948C00C0E0D0E00E94E5013D
:100A10002097E1F30E940000F9CFCF92DF92EF928E
:100A2000FF920F931F93CF93DF936C017A01EB0139
:100A3000E60EF71E00E010E0CE15DF0561F06991CB
:100A4000D601ED91FC910190F081E02DC601099550
:100A5000080F191FF1CFC801DF91CF911F910F919E
:100A6000FF90EF90DF90CF9008956115710581F0B0
:100A7000DB010D900020E9F7AD0141505109461B03
:100A8000570BDC01ED91FC910280F381E02D09947C
:100A900080E090E008950C943505EE0FFF1F05905F
:0A0AA000F491E02D0994F894FFCFC3
:100AAA000144617461206520486F72610032372FFA
:100ABA0030382F3135202031353A31340054656DC4
:100ACA0070657261747572610032352043656C73AA
:100ADA00697573004163696F6E6172204C616D7054
:100AEA0061646173004C31206F6E20004C31206FBD
:100AFA006666004C32206F6E20004C32206F6666AC
:100B0A00004D656E752034005752204B697473008E
:080B1A0000000000A7030D0517
:00000001FF
