:100000000C9462000C948A000C948A000C948A0070
:100010000C948A000C948A000C948A000C948A0038
:100020000C948A000C948A000C948A000C948A0028
:100030000C948A000C948A000C948A000C948A0018
:100040000C94E0020C948A000C948A000C948A00B0
:100050000C948A000C948A000C948A000C948A00F8
:100060000C948A000C948A00000000080002010031
:100070000003040700000000000000000102040863
:100080001020408001020408102001020408102002
:10009000040404040404040402020202020203032E
:1000A00003030303000000002300260029000000D2
:1000B0000000250028002B0000000000240027007D
:1000C0002A00530111241FBECFEFD8E0DEBFCDBF01
:1000D00011E0A0E0B1E0E2E0FBE002C005900D928B
:1000E000A433B107D9F721E0A4E3B1E001C01D9228
:1000F000AD35B207E1F710E0C4ECD0E004C02297C0
:10010000FE010E946505C23CD107C9F70E94310576
:100110000C947F050C94000080914C0190914D014E
:10012000019690934D0180934C0164EF71E080E063
:1001300090E00E944D0341E062E084E391E00E9480
:10014000020260914C0170914D014AE050E084E35D
:1001500091E00E942A0560914C0180914E0190919E
:100160004F010C947105FF920F931F93CF93DF9370
:10017000FF24F39402E010E0C1E0D0E08AE00E94A6
:100180006504892B11F4F09253018BE00E94650401
:10019000892B11F4F09252018AE00E946504892BA8
:1001A00021F080915301811145C08BE00E946504CC
:1001B000892B21F080915201811143C040E060E021
:1001C00084E391E00E94020260E071E084E391E048
:1001D0000E94CC0441E060E084E391E00E940202CE
:1001E00061E171E084E391E00E94CC0480915001D0
:1001F00090915101009709F4C1CF8130910561F4CC
:1002000080914E0190914F010E94690590E090937A
:100210004D0180934C011CC00297D1F46FEF809187
:100220004E0190914F010E94710510924D01109264
:100230004C010EC0109253011093510100935001D4
:10024000B4CF10925201D0935101C0935001B6CF58
:10025000DF91CF911F910F91FF90089562E08AE0A6
:100260000E94F60362E08BE00E94F60320E042E089
:1002700060E184E391E00E941C0284E391E00E942B
:10028000FB010E94B30084E391E00E94FB0140E087
:1002900062E084E391E00E94020262E271E084E3A2
:1002A00091E00C94CC04CF92EF920F9382E0C82E91
:1002B00093E0E92E04E025E047E068E084E391E084
:1002C0000E94BA020F91EF90CF900895CF93DF93E1
:1002D000EC0160E08E810E942F0481E090E00E949A
:1002E000870361E08E810E942F0481E090E00E94EC
:1002F000870360E08E810E942F0484E690E0DF9106
:10030000CF910C948703EF92FF920F931F93CF939B
:10031000DF938C01C0E0D0E0E62EF12CB7010C2E6B
:1003200002C0759567950A94E2F76170F801EC0FC9
:10033000FD1F87810E942F042196C430D10571F7DB
:10034000C801DF91CF911F910F91FF90EF900C9416
:100350006601EF92FF920F931F93CF93DF938C016F
:10036000C0E0D0E0E62EF12CB7010C2E02C075954E
:1003700067950A94E2F76170F801EC0FFD1F878121
:100380000E942F042196C830D10571F7C801DF9172
:10039000CF911F910F91FF90EF900C9466011F93E6
:1003A000CF93DF93EC01162F642F8C810E942F04D2
:1003B0008D818F3F19F060E00E942F048F85612F9F
:1003C00084FF06C0CE01DF91CF911F910C94A9014B
:1003D00070E084E0759567958A95E1F7CE010E94FB
:1003E0008301612FCE01DF91CF911F910C94830186
:1003F00040E00C94CF0161E00E94F80180ED97E0AD
:100400000C948703443008F043E0FC012389421731
:1004100010F04FEF420FFC01E40FF11D2489260F6D
:100420002068622F0C94F801FC016089262F24605B
:10043000208B6C600C94F8010F931F93CF93DF9384
:10044000EC01423018F08F8588608F874B8B1C8AB7
:1004500080E48D8B6E8B70E0605C7F4F6F8B22230E
:1004600029F0413019F48F8584608F8761E08C8199
:100470000E94F6038D818F3F19F061E00E94F60320
:1004800061E08E810E94F60300E010E08F8584FF1A
:1004900003C088E090E002C084E090E008171907EC
:1004A00054F4FE01E00FF11F61E087810E94F60322
:1004B0000F5F1F4FEBCF80E593EC0E94870360E056
:1004C0008C810E942F0460E08E810E942F048D8118
:1004D0008F3F19F060E00E942F046F8564FD1DC0FE
:1004E00063E0CE010E94830184E991E10E948703C9
:1004F00063E0CE010E94830184E991E10E948703B9
:1005000063E0CE010E94830186E990E00E948703A8
:1005100062E0CE010E94830116C06062CE010E949B
:10052000F80184E991E10E9487036F856062CE0142
:100530000E94F80186E990E00E9487036F8560625F
:10054000CE010E94F8016F856062CE010E94F80121
:1005500084E0888BCE010E941402CE010E94FB0130
:1005600082E0898B66E0CE01DF91CF911F910F91E0
:100570000C94F801CF92EF920F93FC011382128238
:1005800080E391E09183808364838FEF858346834A
:1005900027830087E186C286138614861586168611
:1005A000178620E041E060E1CF010F91EF90CF90FE
:1005B0000C941C0241E00E94CF0181E090E008957C
:1005C0001F920F920FB60F9211242F933F938F9388
:1005D0009F93AF93BF938091550190915601A09145
:1005E0005701B09158013091540123E0230F2D376A
:1005F00020F40196A11DB11D05C026E8230F029627
:10060000A11DB11D20935401809355019093560173
:10061000A0935701B09358018091590190915A01CC
:10062000A0915B01B0915C010196A11DB11D809369
:10063000590190935A01A0935B01B0935C01BF9163
:10064000AF919F918F913F912F910F900FBE0F907F
:100650001F9018953FB7F8948091590190915A01D5
:10066000A0915B01B0915C0126B5A89B05C02F3F0E
:1006700019F00196A11DB11D3FBF6627782F892F64
:100680009A2F620F711D811D911D42E0660F771F29
:10069000881F991F4A95D1F708958F929F92AF9224
:1006A000BF92CF92DF92EF92FF926B017C010E948A
:1006B0002A034B015C01C114D104E104F104F1F0FF
:1006C0000E9440050E942A03681979098A099B093A
:1006D000683E73408105910570F321E0C21AD1088C
:1006E000E108F10888EE880E83E0981EA11CB11C79
:1006F000C114D104E104F10429F7DDCFFF90EF909C
:10070000DF90CF90BF90AF909F908F9008958230F0
:10071000910538F0880F991F880F991F0597019749
:10072000F1F70895789484B5826084BD84B58160C2
:1007300084BD85B5826085BD85B5816085BDEEE6E9
:10074000F0E0808181608083E1E8F0E010828081C8
:1007500082608083808181608083E0E8F0E0808136
:1007600081608083E1EBF0E0808184608083E0EB56
:10077000F0E0808181608083EAE7F0E0808184603E
:10078000808380818260808380818160808380819A
:10079000806880831092C1000895833081F028F42E
:1007A000813099F08230A1F008958730A9F0883027
:1007B000B9F08430D1F4809180008F7D03C08091A6
:1007C00080008F7780938000089584B58F7702C072
:1007D00084B58F7D84BD08958091B0008F7703C06C
:1007E0008091B0008F7D8093B0000895CF93DF9308
:1007F00090E0FC01E458FF4F2491FC01E057FF4FCB
:100800008491882349F190E0880F991FFC01E854F6
:10081000FF4FA591B49182559F4FFC01C591D49192
:100820009FB7611108C0F8948C91209582238C9316
:10083000888182230AC0623051F4F8948C91322F5F
:10084000309583238C938881822B888304C0F8940D
:100850008C91822B8C939FBFDF91CF9108950F9342
:100860001F93CF93DF931F92CDB7DEB7282F30E0D1
:10087000F901E859FF4F8491F901E458FF4F1491B1
:10088000F901E057FF4F04910023C9F0882321F0BC
:1008900069830E94CD036981E02FF0E0EE0FFF1F16
:1008A000E255FF4FA591B4919FB7F8948C916111D7
:1008B00003C01095812301C0812B8C939FBF0F90A3
:1008C000DF91CF911F910F910895CF93DF93282F40
:1008D00030E0F901E859FF4F8491F901E458FF4FE6
:1008E000D491F901E057FF4FC491CC2391F08111CD
:1008F0000E94CD03EC2FF0E0EE0FFF1FEC55FF4FF1
:10090000A591B4912C912D2381E090E021F480E019
:1009100002C080E090E0DF91CF910895CF92DF9206
:10092000EF92FF920F931F93CF93DF937C016A01A5
:10093000EB0100E010E00C151D0571F06991D70185
:10094000ED91FC910190F081E02DC7010995892B73
:1009500019F00F5F1F4FEFCFC801DF91CF911F91AB
:100960000F91FF90EF90DF90CF9008956115710582
:1009700081F0DB010D900020E9F7AD0141505109F4
:10098000461B570BDC01ED91FC910280F381E02DB9
:10099000099480E090E008950C94B6048F929F92A1
:1009A000AF92BF92DF92EF92FF920F931F93CF937C
:1009B000DF93CDB7DEB7A1970FB6F894DEBF0FBEB9
:1009C000CDBF7C01F42FD52ECB0119A2223008F423
:1009D0002AE08E010F5D1F4F822E912CA12CB12C8D
:1009E0006F2F7D2DA50194010E944105F22FD32E7A
:1009F000CA01015011096A3014F4E0E301C0E7E3D1
:100A0000E60FD801EC93232B242B252B49F7B801B3
:100A1000C7010E94B604A1960FB6F894DEBF0FBEC0
:100A2000CDBFDF91CF911F910F91FF90EF90DF909D
:100A3000BF90AF909F908F9008952115310541F49C
:100A4000DC01ED91FC910190F081E02D642F09947F
:100A50000C94CE049A01AB0160E070E00C941D058B
:100A600008950E9492030E9430050E942E01C0E06A
:100A7000D0E00E948C002097E1F30E940000F9CFA3
:100A80000895A1E21A2EAA1BBB1BFD010DC0AA1FCF
:100A9000BB1FEE1FFF1FA217B307E407F50720F0E7
:100AA000A21BB30BE40BF50B661F771F881F991F62
:100AB0001A9469F760957095809590959B01AC01AB
:100AC000BD01CF010895EE0FFF1F0590F491E02DB9
:100AD0000994F999FECF92BD81BDF89A992780B506
:100AE0000895262FF999FECF1FBA92BD81BD20BD72
:100AF0000FB6F894FA9AF99A0FBE01960895F894F1
:020B0000FFCF25
:100B0200526563757065726120454550524F4D3F85
:100B12000031202D2053696D202032202D204E617E
:100B22006F00436F6E7461646F723A0000000000E0
:040B3200DA028E0451
:00000001FF
